{
  "contractName": "MaxSupply",
  "abi": [
    {
      "inputs": [
        {
          "internalType": "string",
          "name": "name_",
          "type": "string"
        },
        {
          "internalType": "string",
          "name": "symbol_",
          "type": "string"
        },
        {
          "internalType": "uint256",
          "name": "maxSupply_",
          "type": "uint256"
        }
      ],
      "stateMutability": "nonpayable",
      "type": "constructor"
    },
    {
      "anonymous": false,
      "inputs": [
        {
          "indexed": true,
          "internalType": "address",
          "name": "owner",
          "type": "address"
        },
        {
          "indexed": true,
          "internalType": "address",
          "name": "spender",
          "type": "address"
        },
        {
          "indexed": false,
          "internalType": "uint256",
          "name": "value",
          "type": "uint256"
        }
      ],
      "name": "Approval",
      "type": "event"
    },
    {
      "anonymous": false,
      "inputs": [
        {
          "indexed": true,
          "internalType": "address",
          "name": "from",
          "type": "address"
        },
        {
          "indexed": true,
          "internalType": "address",
          "name": "to",
          "type": "address"
        },
        {
          "indexed": false,
          "internalType": "uint256",
          "name": "value",
          "type": "uint256"
        }
      ],
      "name": "Transfer",
      "type": "event"
    },
    {
      "inputs": [],
      "name": "name",
      "outputs": [
        {
          "internalType": "string",
          "name": "",
          "type": "string"
        }
      ],
      "stateMutability": "view",
      "type": "function",
      "constant": true
    },
    {
      "inputs": [],
      "name": "symbol",
      "outputs": [
        {
          "internalType": "string",
          "name": "",
          "type": "string"
        }
      ],
      "stateMutability": "view",
      "type": "function",
      "constant": true
    },
    {
      "inputs": [],
      "name": "totalSupply",
      "outputs": [
        {
          "internalType": "uint256",
          "name": "",
          "type": "uint256"
        }
      ],
      "stateMutability": "view",
      "type": "function",
      "constant": true
    },
    {
      "inputs": [],
      "name": "decimals",
      "outputs": [
        {
          "internalType": "uint8",
          "name": "",
          "type": "uint8"
        }
      ],
      "stateMutability": "pure",
      "type": "function",
      "constant": true
    },
    {
      "inputs": [
        {
          "internalType": "address",
          "name": "account",
          "type": "address"
        }
      ],
      "name": "balanceOf",
      "outputs": [
        {
          "internalType": "uint256",
          "name": "",
          "type": "uint256"
        }
      ],
      "stateMutability": "view",
      "type": "function",
      "constant": true
    },
    {
      "inputs": [
        {
          "internalType": "address",
          "name": "owner",
          "type": "address"
        },
        {
          "internalType": "address",
          "name": "spender",
          "type": "address"
        }
      ],
      "name": "allowance",
      "outputs": [
        {
          "internalType": "uint256",
          "name": "",
          "type": "uint256"
        }
      ],
      "stateMutability": "view",
      "type": "function",
      "constant": true
    },
    {
      "inputs": [
        {
          "internalType": "address",
          "name": "spender",
          "type": "address"
        },
        {
          "internalType": "uint256",
          "name": "amount",
          "type": "uint256"
        }
      ],
      "name": "approve",
      "outputs": [
        {
          "internalType": "bool",
          "name": "",
          "type": "bool"
        }
      ],
      "stateMutability": "nonpayable",
      "type": "function"
    },
    {
      "inputs": [
        {
          "internalType": "address",
          "name": "spender",
          "type": "address"
        }
      ],
      "name": "approveMax",
      "outputs": [],
      "stateMutability": "nonpayable",
      "type": "function"
    },
    {
      "inputs": [
        {
          "internalType": "address",
          "name": "to",
          "type": "address"
        },
        {
          "internalType": "uint256",
          "name": "amount",
          "type": "uint256"
        }
      ],
      "name": "transfer",
      "outputs": [],
      "stateMutability": "nonpayable",
      "type": "function"
    },
    {
      "inputs": [
        {
          "internalType": "address",
          "name": "from",
          "type": "address"
        },
        {
          "internalType": "address",
          "name": "to",
          "type": "address"
        },
        {
          "internalType": "uint256",
          "name": "amount",
          "type": "uint256"
        }
      ],
      "name": "transferFrom",
      "outputs": [],
      "stateMutability": "nonpayable",
      "type": "function"
    }
  ],
  "bytecode": "0x60806040523480156200001157600080fd5b50604051620017af380380620017af8339818101604052810190620000379190620002b0565b82600390816200004891906200058b565b5081600490816200005a91906200058b565b50670de0b6b3a764000081620000719190620006a1565b600281905550670de0b6b3a7640000816200008d9190620006a1565b6000803373ffffffffffffffffffffffffffffffffffffffff1673ffffffffffffffffffffffffffffffffffffffff1681526020019081526020016000208190555050505062000702565b6000604051905090565b600080fd5b600080fd5b600080fd5b600080fd5b6000601f19601f8301169050919050565b7f4e487b7100000000000000000000000000000000000000000000000000000000600052604160045260246000fd5b6200014182620000f6565b810181811067ffffffffffffffff8211171562000163576200016262000107565b5b80604052505050565b600062000178620000d8565b905062000186828262000136565b919050565b600067ffffffffffffffff821115620001a957620001a862000107565b5b620001b482620000f6565b9050602081019050919050565b60005b83811015620001e1578082015181840152602081019050620001c4565b83811115620001f1576000848401525b50505050565b60006200020e62000208846200018b565b6200016c565b9050828152602081018484840111156200022d576200022c620000f1565b5b6200023a848285620001c1565b509392505050565b600082601f8301126200025a5762000259620000ec565b5b81516200026c848260208601620001f7565b91505092915050565b6000819050919050565b6200028a8162000275565b81146200029657600080fd5b50565b600081519050620002aa816200027f565b92915050565b600080600060608486031215620002cc57620002cb620000e2565b5b600084015167ffffffffffffffff811115620002ed57620002ec620000e7565b5b620002fb8682870162000242565b935050602084015167ffffffffffffffff8111156200031f576200031e620000e7565b5b6200032d8682870162000242565b9250506040620003408682870162000299565b9150509250925092565b600081519050919050565b7f4e487b7100000000000000000000000000000000000000000000000000000000600052602260045260246000fd5b600060028204905060018216806200039d57607f821691505b602082108103620003b357620003b262000355565b5b50919050565b60008190508160005260206000209050919050565b60006020601f8301049050919050565b600082821b905092915050565b6000600883026200041d7fffffffffffffffffffffffffffffffffffffffffffffffffffffffffffffffff82620003de565b620004298683620003de565b95508019841693508086168417925050509392505050565b6000819050919050565b60006200046c62000466620004608462000275565b62000441565b62000275565b9050919050565b6000819050919050565b62000488836200044b565b620004a0620004978262000473565b848454620003eb565b825550505050565b600090565b620004b7620004a8565b620004c48184846200047d565b505050565b5b81811015620004ec57620004e0600082620004ad565b600181019050620004ca565b5050565b601f8211156200053b576200050581620003b9565b6200051084620003ce565b8101602085101562000520578190505b620005386200052f85620003ce565b830182620004c9565b50505b505050565b600082821c905092915050565b6000620005606000198460080262000540565b1980831691505092915050565b60006200057b83836200054d565b9150826002028217905092915050565b62000596826200034a565b67ffffffffffffffff811115620005b257620005b162000107565b5b620005be825462000384565b620005cb828285620004f0565b600060209050601f831160018114620006035760008415620005ee578287015190505b620005fa85826200056d565b8655506200066a565b601f1984166200061386620003b9565b60005b828110156200063d5784890151825560018201915060208501945060208101905062000616565b868310156200065d578489015162000659601f8916826200054d565b8355505b6001600288020188555050505b505050505050565b7f4e487b7100000000000000000000000000000000000000000000000000000000600052601160045260246000fd5b6000620006ae8262000275565b9150620006bb8362000275565b9250817fffffffffffffffffffffffffffffffffffffffffffffffffffffffffffffffff0483118215151615620006f757620006f662000672565b5b828202905092915050565b61109d80620007126000396000f3fe608060405234801561001057600080fd5b506004361061009e5760003560e01c8063571ac8b011610066578063571ac8b01461014957806370a082311461016557806395d89b4114610195578063a9059cbb146101b3578063dd62ed3e146101cf5761009e565b806306fdde03146100a3578063095ea7b3146100c157806318160ddd146100f157806323b872dd1461010f578063313ce5671461012b575b600080fd5b6100ab6101ff565b6040516100b89190610a6e565b60405180910390f35b6100db60048036038101906100d69190610b29565b610291565b6040516100e89190610b84565b60405180910390f35b6100f96102ad565b6040516101069190610bae565b60405180910390f35b61012960048036038101906101249190610bc9565b6102b7565b005b6101336102d8565b6040516101409190610c38565b60405180910390f35b610163600480360381019061015e9190610c53565b6102e1565b005b61017f600480360381019061017a9190610c53565b610315565b60405161018c9190610bae565b60405180910390f35b61019d61035d565b6040516101aa9190610a6e565b60405180910390f35b6101cd60048036038101906101c89190610b29565b6103ef565b005b6101e960048036038101906101e49190610c80565b610404565b6040516101f69190610bae565b60405180910390f35b60606003805461020e90610cef565b80601f016020809104026020016040519081016040528092919081815260200182805461023a90610cef565b80156102875780601f1061025c57610100808354040283529160200191610287565b820191906000526020600020905b81548152906001019060200180831161026a57829003601f168201915b5050505050905090565b6000803390506102a281858561048b565b600191505092915050565b6000600254905090565b60003390506102c7848284610654565b6102d28484846107d2565b50505050565b60006012905090565b600033905061031181837fffffffffffffffffffffffffffffffffffffffffffffffffffffffffffffffff61048b565b5050565b60008060008373ffffffffffffffffffffffffffffffffffffffff1673ffffffffffffffffffffffffffffffffffffffff168152602001908152602001600020549050919050565b60606004805461036c90610cef565b80601f016020809104026020016040519081016040528092919081815260200182805461039890610cef565b80156103e55780601f106103ba576101008083540402835291602001916103e5565b820191906000526020600020905b8154815290600101906020018083116103c857829003601f168201915b5050505050905090565b60003390506103ff8184846107d2565b505050565b6000600160008473ffffffffffffffffffffffffffffffffffffffff1673ffffffffffffffffffffffffffffffffffffffff16815260200190815260200160002060008373ffffffffffffffffffffffffffffffffffffffff1673ffffffffffffffffffffffffffffffffffffffff16815260200190815260200160002054905092915050565b600073ffffffffffffffffffffffffffffffffffffffff168373ffffffffffffffffffffffffffffffffffffffff16036104fa576040517f08c379a00000000000000000000000000000000000000000000000000000000081526004016104f190610d92565b60405180910390fd5b600073ffffffffffffffffffffffffffffffffffffffff168273ffffffffffffffffffffffffffffffffffffffff1603610569576040517f08c379a000000000000000000000000000000000000000000000000000000000815260040161056090610e24565b60405180910390fd5b80600160008573ffffffffffffffffffffffffffffffffffffffff1673ffffffffffffffffffffffffffffffffffffffff16815260200190815260200160002060008473ffffffffffffffffffffffffffffffffffffffff1673ffffffffffffffffffffffffffffffffffffffff168152602001908152602001600020819055508173ffffffffffffffffffffffffffffffffffffffff168373ffffffffffffffffffffffffffffffffffffffff167f8c5be1e5ebec7d5bd14f71427d1e84f3dd0314c0f7b2291e5b200ac8c7c3b925836040516106479190610bae565b60405180910390a3505050565b6000600160008573ffffffffffffffffffffffffffffffffffffffff1673ffffffffffffffffffffffffffffffffffffffff16815260200190815260200160002060008473ffffffffffffffffffffffffffffffffffffffff1673ffffffffffffffffffffffffffffffffffffffff1681526020019081526020016000205490507fffffffffffffffffffffffffffffffffffffffffffffffffffffffffffffffff81146107cc578181101561073f576040517f08c379a000000000000000000000000000000000000000000000000000000000815260040161073690610e90565b60405180910390fd5b818161074b9190610edf565b600160008673ffffffffffffffffffffffffffffffffffffffff1673ffffffffffffffffffffffffffffffffffffffff16815260200190815260200160002060008573ffffffffffffffffffffffffffffffffffffffff1673ffffffffffffffffffffffffffffffffffffffff168152602001908152602001600020819055505b50505050565b600073ffffffffffffffffffffffffffffffffffffffff168373ffffffffffffffffffffffffffffffffffffffff1603610841576040517f08c379a000000000000000000000000000000000000000000000000000000000815260040161083890610f85565b60405180910390fd5b60008060008573ffffffffffffffffffffffffffffffffffffffff1673ffffffffffffffffffffffffffffffffffffffff168152602001908152602001600020549050818110156108c7576040517f08c379a00000000000000000000000000000000000000000000000000000000081526004016108be90610ff1565b60405180910390fd5b81816108d39190610edf565b6000808673ffffffffffffffffffffffffffffffffffffffff1673ffffffffffffffffffffffffffffffffffffffff16815260200190815260200160002081905550816000808573ffffffffffffffffffffffffffffffffffffffff1673ffffffffffffffffffffffffffffffffffffffff16815260200190815260200160002060008282546109639190611011565b925050819055508273ffffffffffffffffffffffffffffffffffffffff168473ffffffffffffffffffffffffffffffffffffffff167fddf252ad1be2c89b69c2b068fc378daa952ba7f163c4a11628f55a4df523b3ef846040516109c79190610bae565b60405180910390a350505050565b600081519050919050565b600082825260208201905092915050565b60005b83811015610a0f5780820151818401526020810190506109f4565b83811115610a1e576000848401525b50505050565b6000601f19601f8301169050919050565b6000610a40826109d5565b610a4a81856109e0565b9350610a5a8185602086016109f1565b610a6381610a24565b840191505092915050565b60006020820190508181036000830152610a888184610a35565b905092915050565b600080fd5b600073ffffffffffffffffffffffffffffffffffffffff82169050919050565b6000610ac082610a95565b9050919050565b610ad081610ab5565b8114610adb57600080fd5b50565b600081359050610aed81610ac7565b92915050565b6000819050919050565b610b0681610af3565b8114610b1157600080fd5b50565b600081359050610b2381610afd565b92915050565b60008060408385031215610b4057610b3f610a90565b5b6000610b4e85828601610ade565b9250506020610b5f85828601610b14565b9150509250929050565b60008115159050919050565b610b7e81610b69565b82525050565b6000602082019050610b996000830184610b75565b92915050565b610ba881610af3565b82525050565b6000602082019050610bc36000830184610b9f565b92915050565b600080600060608486031215610be257610be1610a90565b5b6000610bf086828701610ade565b9350506020610c0186828701610ade565b9250506040610c1286828701610b14565b9150509250925092565b600060ff82169050919050565b610c3281610c1c565b82525050565b6000602082019050610c4d6000830184610c29565b92915050565b600060208284031215610c6957610c68610a90565b5b6000610c7784828501610ade565b91505092915050565b60008060408385031215610c9757610c96610a90565b5b6000610ca585828601610ade565b9250506020610cb685828601610ade565b9150509250929050565b7f4e487b7100000000000000000000000000000000000000000000000000000000600052602260045260246000fd5b60006002820490506001821680610d0757607f821691505b602082108103610d1a57610d19610cc0565b5b50919050565b7f45524332303a20617070726f76652066726f6d20746865207a65726f2061646460008201527f7265737300000000000000000000000000000000000000000000000000000000602082015250565b6000610d7c6024836109e0565b9150610d8782610d20565b604082019050919050565b60006020820190508181036000830152610dab81610d6f565b9050919050565b7f45524332303a20617070726f766520746f20746865207a65726f20616464726560008201527f7373000000000000000000000000000000000000000000000000000000000000602082015250565b6000610e0e6022836109e0565b9150610e1982610db2565b604082019050919050565b60006020820190508181036000830152610e3d81610e01565b9050919050565b7f496e73756666696369656e7420616c6c6f77616e636500000000000000000000600082015250565b6000610e7a6016836109e0565b9150610e8582610e44565b602082019050919050565b60006020820190508181036000830152610ea981610e6d565b9050919050565b7f4e487b7100000000000000000000000000000000000000000000000000000000600052601160045260246000fd5b6000610eea82610af3565b9150610ef583610af3565b925082821015610f0857610f07610eb0565b5b828203905092915050565b7f45524332303a207472616e736665722066726f6d20746865207a65726f20616460008201527f6472657373000000000000000000000000000000000000000000000000000000602082015250565b6000610f6f6025836109e0565b9150610f7a82610f13565b604082019050919050565b60006020820190508181036000830152610f9e81610f62565b9050919050565b7f496e73756666696369656e7420746f6b656e2062616c616e6365000000000000600082015250565b6000610fdb601a836109e0565b9150610fe682610fa5565b602082019050919050565b6000602082019050818103600083015261100a81610fce565b9050919050565b600061101c82610af3565b915061102783610af3565b9250827fffffffffffffffffffffffffffffffffffffffffffffffffffffffffffffffff0382111561105c5761105b610eb0565b5b82820190509291505056fea2646970667358221220f185088d21d8a7d529ba04b41da29e5cd2b30180deed17c2e1dc01e31eb2e87164736f6c634300080f0033",
  "immutableReferences": {},
  "source": "pragma solidity ^0.8.0;\n\n\ncontract MaxSupply {\n    mapping (address => uint256) private _balances;\n    mapping (address => mapping(address => uint256)) private _allowances;\n\n    uint256 private _totalSupply;\n\n    string private _name;\n    string private _symbol;\n\n    event Transfer(address indexed from, address indexed to, uint256 value);\n\n    event Approval(address indexed owner, address indexed spender, uint256 value);\n\n    constructor(string memory name_, string memory symbol_, uint256 maxSupply_) {\n        _name = name_;\n        _symbol = symbol_;\n        _totalSupply = maxSupply_ * 10 ** 18;\n\n        _balances[msg.sender] =  maxSupply_ * 10 ** 18;\n    }\n\n    function name() public view returns (string memory) {\n        return _name;\n    }\n\n    function symbol() public view returns (string memory) {\n        return _symbol;\n    }\n\n    function totalSupply() public view returns (uint) {\n        return _totalSupply;\n    }\n\n\n    function decimals() public pure returns (uint8) {\n        return 18;\n    }\n\n    function balanceOf(address account) public view returns (uint256) {\n        return _balances[account];\n    }\n\n    function allowance(address owner, address spender) public view returns (uint256) {\n        return _allowances[owner][spender];\n    }\n\n    function approve(address spender, uint amount) public returns(bool) {\n        address owner = msg.sender;\n        _approve(owner, spender, amount);\n        return true;\n    }\n\n    function approveMax(address spender) public {\n        address owner = msg.sender;\n        _approve(owner,spender, type(uint256).max);\n    }\n\n    function _approve(\n        address owner,\n        address spender,\n        uint256 amount\n    ) internal {\n        require(owner != address(0), \"ERC20: approve from the zero address\");\n        require(spender != address(0), \"ERC20: approve to the zero address\");\n\n        _allowances[owner][spender] = amount;\n        emit Approval(owner, spender, amount);\n    }\n\n    function _spendAllowance(address owner, address spender, uint256 amount) internal {\n        uint256 currentAllowance = _allowances[owner][spender];\n        if(currentAllowance != type(uint256).max) {\n            require(currentAllowance >= amount, \"Insufficient allowance\");\n            _allowances[owner][spender] = currentAllowance - amount;\n        }\n    }\n\n    function _transfer(address from, address to, uint256 amount) internal {\n        require(from != address(0), \"ERC20: transfer from the zero address\");\n        uint256 fromBalance = _balances[from];\n        require(fromBalance >= amount, \"Insufficient token balance\");\n        _balances[from] = fromBalance - amount;\n        _balances[to] += amount;\n\n        emit Transfer(from,to,amount);\n\n    }\n\n    function transfer(address to, uint256 amount) public {\n        address owner = msg.sender;\n        _transfer(owner, to, amount);\n    }\n\n    function transferFrom(address from, address to, uint256 amount) public {\n        address spender = msg.sender;\n        _spendAllowance(from, spender, amount);\n        _transfer(from, to, amount);\n    }\n}\n",
  "sourcePath": "/Users/kirylsachuk/Documents/solidity/oz/contracts/maxSupply.sol",
  "compiler": {
    "name": "solc",
    "version": "0.8.15+commit.e14f2714.Emscripten.clang"
  },
  "schemaVersion": "3.4.7",
  "updatedAt": "2022-06-30T08:02:49.533Z",
  "networkType": "ethereum",
  "devdoc": {
    "kind": "dev",
    "methods": {},
    "version": 1
  },
  "userdoc": {
    "kind": "user",
    "methods": {},
    "version": 1
  }
}